:020000040000FA
:100000000C9457000C9415020C94EE010C9474009F
:100010000C9474000C9474000C9474000C94740090
:100020000C9474000C9474000C9474000C94740080
:100030000C9474000C9474000C9474000C94740070
:100040000C94A4010C9474000C9474000C9474002F
:100050000C9474000C9474000C9474000C94740050
:100060000C943C020C947400000000002500280051
:100070002B00040404040404040402020202020229
:10008000030303030303010204081020408001025C
:1000900004081020010204081020000000080002DB
:1000A000010000030407000000000000000011240C
:1000B0001FBECFEFD8E0DEBFCDBF11E0A0E0B1E0C2
:1000C000ECE9F9E002C005900D92A630B107D9F72E
:1000D00021E0A6E0B1E001C01D92AA38B207E1F725
:1000E0000E9457030C94CC040C94000081E0809390
:1000F0000401809187019091880101969093880175
:1001000080938701089590E0FC01E656FF4F24910B
:10011000FC01EA57FF4F3491FC01EE58FF4FE49188
:10012000EE23C9F0222339F0233001F1A8F4213065
:1001300019F1223029F1F0E0EE0FFF1FE859FF4FCF
:10014000A591B4918FB7F894EC91611126C03095C8
:100150003E233C938FBF08952730A9F02830C9F083
:10016000243049F7809180008F7D03C0809180000A
:100170008F7780938000DFCF84B58F7784BDDBCF0E
:1001800084B58F7DFBCF8091B0008F778093B000D6
:10019000D2CF8091B0008F7DF9CF3E2BDACF08957A
:1001A00020912D01260F3327331F21323105ECF426
:1001B00020915101FC0190E080E0243069F082E060
:1001C0000895A0912D012191AC01435F5E4FA40FD2
:1001D000B52FB11D2C930196861798F380912D01B0
:1001E000680F60932D0180E0089581E008950895DF
:1001F0008FEF9FEF08958FEF9FEF08958091060195
:1002000090E09195819591090895CF93DF93CB016B
:10021000EA01642F0E94D000CE01DF91CF910895B2
:10022000CF93DF931F92CDB7DEB7698361E0CE0134
:1002300001960E94D00081E090E00F90DF91CF9175
:10024000089590E080E0089520910401222331F088
:10025000FC018081811102C01092040108951F9356
:10026000CF93DF9385ED8093BC008091090190913D
:100270000A01A0910B01B0910C010796A11DB11DBF
:1002800023E0B695A795979587952A95D1F7209164
:10029000BC0024FD03C01092510152C040910901DD
:1002A00050910A0160910B0170910C01452B462B76
:1002B000472B69F30097A105B10541F02AE22A9581
:1002C000F1F700C00197A109B109E1CF80910801C0
:1002D000C1E0C0930701882399F1D091B800109133
:1002E000BA008091BC008A7B8093BC0060E082E110
:1002F0000E94830060E083E10E948300109251011C
:10030000C09353011092520161E082E10E94830088
:1003100061E083E10E9483008091B9008E7F809329
:10032000B9008091B9008D7F8093B90088E48093F3
:10033000B80085E48093BC001093BA00D093B80055
:10034000DF91CF911F9108951F920F920FB60F92D8
:1003500011242F933F938F939F93AF93BF938091DB
:100360007C0190917D01A0917E01B0917F0130913F
:100370007B0123E0230F2D3758F50196A11DB11DF8
:1003800020937B0180937C0190937D01A0937E015B
:10039000B0937F018091770190917801A0917901CC
:1003A000B0917A010196A11DB11D809377019093C0
:1003B0007801A0937901B0937A01BF91AF919F9199
:1003C0008F913F912F910F900FBE0F901F90189516
:1003D00026E8230F0296A11DB11DD2CF1F920F92C6
:1003E0000FB60F9211242F933F934F935F936F9308
:1003F0007F938F939F93AF93BF93EF93FF93E0917E
:100400000201F09103010995FF91EF91BF91AF9126
:100410009F918F917F916F915F914F913F912F911C
:100420000F900FBE0F901F9018951F920F920FB64E
:100430000F9211242F933F934F935F936F937F936A
:100440008F939F93AF93BF93EF93FF93E09100013E
:10045000F09101010995FF91EF91BF91AF919F91AB
:100460008F917F916F915F914F913F912F910F905D
:100470000FBE0F901F9018951F920F920FB60F92FC
:1004800011242F933F934F935F936F937F938F9399
:100490009F93AF93BF93EF93FF938091B900887FB1
:1004A000803609F44AC0F0F5883209F4A5C018F581
:1004B000803109F499C0B8F4882309F4F5C0883074
:1004C00009F492C0FF91EF91BF91AF919F918F91ED
:1004D0007F916F915F914F913F912F910F900FBE40
:1004E0000F901F901895883109F486C0803251F71B
:1004F0008093500114C0803409F49BC040F48033D1
:10050000B9F38833F9F68093500185ECAEC080359D
:1005100009F483C0883509F494C0883499F60E94A0
:100520002F01D0CF883909F48AC038F5883729F0EF
:1005300050F4883611F0803729F683E0809351011A
:1005400010924F0155C0883809F479C0803919F0EC
:10055000803809F0B7CF80914F01803208F06FC02A
:10056000E0914F0181E08E0F80934F018091BB009D
:10057000F0E0E15DFE4F80833BC0803B39F0D0F47A
:10058000803A09F477C0883A09F09CCF84E08093E0
:10059000510110922E0110922D01F0E0E0E009953A
:1005A00080912D0181110FC081E080932D01109267
:1005B0000D0109C0803C09F4A8CF883C09F4A5CFFF
:1005C000883B09F07FCFE0912E0181E08E0F809370
:1005D0002E01F0E0E35FFE4F80818093BB0090919D
:1005E0002E0180912D0129C0809176018093BB005E
:1005F00085EC8093BC0066CF909175018091740169
:10060000981758F5E091750181E08E0F8093750180
:10061000F0E0EC5AFE4F8081E9CFE091750181E076
:100620008E0F809375018091BB00F0E0EC5AFE4F75
:10063000808390917501809174019817C8F285E8C4
:10064000D8CFE091750181E08E0F80937501809184
:10065000BB00F0E0EC5AFE4F808380915301811182
:100660005ECF81E08093520184EA8093BC001092B7
:10067000510128CF85EC8093BC00109251018091EC
:100680004F01803230F4E0914F01F0E0E15DFE4F28
:10069000108260914F0170E08FE291E0F0E0E0E0C5
:1006A000099510924F010ECF1092500138CF7894D7
:1006B00084B5826084BD84B5816084BD85B5826067
:1006C00085BD85B5816085BD80916E008160809318
:1006D0006E00109281008091810082608093810081
:1006E0008091810081608093810080918000816091
:1006F000809380008091B10084608093B1008091EC
:10070000B00081608093B00080917A008460809313
:100710007A0080917A00826080937A0080917A00DA
:10072000816080937A0080917A00806880937A005B
:100730001092C1008AB180668AB984B18E6084B992
:1007400087B187B986E790E090930101809300011B
:1007500080916900836080936900E89AC1E000E0BD
:1007600010E089B189B183FB882780F980938901E2
:1007700089B1829581708093800189B183B1C093E2
:10078000040189E891E00E942401809104018823FA
:10079000D9F06091870170918801072E000C880BB9
:1007A000990B0E9468046B017C0120E030E040EF6F
:1007B00051E40E94C70418160CF053C0C093860180
:1007C0001092850110928401C093040186E891E0A3
:1007D0000E94240180910401882309F462C0C0931F
:1007E0008301C093040185E891E00E942401809177
:1007F0000401882309F458C0C0938201C093040106
:1008000084E891E00E94240180910401882309F486
:100810004EC0C0938101C093040180E891E00E9422
:10082000240180910401882321F010928801109204
:100830008701809183018823E9F15D9A809182018B
:100840008823D1F15E9A809181018823B9F1299A98
:100850002A982B980115110509F483CF0E940000F6
:1008600080CF20E030E040EF51E4C701B6010E94A4
:100870006104811105C0C093850110928601A2CF49
:1008800020E030E040EF51E4C701B6010E9461046E
:1008900087FF9ACFC0938401109285011092860140
:1008A00093CF109283019DCF10928201A7CF109217
:1008B0008101B1CF5D98C2CF5E98C5CF2998C8CFCE
:1008C00008950E94A30408F481E00895E89409C003
:1008D00097FB3EF490958095709561957F4F8F4F73
:1008E0009F4F9923A9F0F92F96E9BB279395F69589
:1008F000879577956795B795F111F8CFFAF4BB0F07
:1009000011F460FF1BC06F5F7F4F8F4F9F4F16C06A
:10091000882311F096E911C0772321F09EE8872FF4
:10092000762F05C0662371F096E8862F70E060E0B0
:100930002AF09A95660F771F881FDAF7880F969529
:10094000879597F90895990F0008550FAA0BE0E8CD
:10095000FEEF16161706E807F907C0F01216130681
:10096000E407F50798F0621B730B840B950B39F4C1
:100970000A2661F0232B242B252B21F408950A2627
:1009800009F4A140A6958FEF811D811D08950E9455
:10099000A30408F48FEF0895F894FFCFCF00CF00A1
:0209A000010054
:107E0000112484B714BE81FFF0D085E080938100F7
:107E100082E08093C00088E18093C10086E0809377
:107E2000C20080E18093C4008EE0C9D0259A86E02C
:107E300020E33CEF91E0309385002093840096BBD3
:107E4000B09BFECF1D9AA8958150A9F7CC24DD24C4
:107E500088248394B5E0AB2EA1E19A2EF3E0BF2EE7
:107E6000A2D0813461F49FD0082FAFD0023811F036
:107E7000013811F484E001C083E08DD089C08234E0
:107E800011F484E103C0853419F485E0A6D080C0E4
:107E9000853579F488D0E82EFF2485D0082F10E0AE
:107EA000102F00270E291F29000F111F8ED06801E7
:107EB0006FC0863521F484E090D080E0DECF843638
:107EC00009F040C070D06FD0082F6DD080E0C81688
:107ED00080E7D80618F4F601B7BEE895C0E0D1E017
:107EE00062D089930C17E1F7F0E0CF16F0E7DF06D8
:107EF00018F0F601B7BEE89568D007B600FCFDCFD4
:107F0000A601A0E0B1E02C9130E011968C91119780
:107F100090E0982F8827822B932B1296FA010C0160
:107F200087BEE89511244E5F5F4FF1E0A038BF0790
:107F300051F7F601A7BEE89507B600FCFDCF97BE46
:107F4000E89526C08437B1F42ED02DD0F82E2BD052
:107F50003CD0F601EF2C8F010F5F1F4F84911BD097
:107F6000EA94F801C1F70894C11CD11CFA94CF0C13
:107F7000D11C0EC0853739F428D08EE10CD085E9AC
:107F80000AD08FE07ACF813511F488E018D01DD067
:107F900080E101D065CF982F8091C00085FFFCCF94
:107FA0009093C60008958091C00087FFFCCF809118
:107FB000C00084FD01C0A8958091C6000895E0E648
:107FC000F0E098E1908380830895EDDF803219F02E
:107FD00088E0F5DFFFCF84E1DECF1F93182FE3DFCA
:107FE0001150E9F7F2DF1F91089580E0E8DFEE27F6
:047FF000FF270994CA
:027FFE00040479
:00000001FF
