:100000000C9458000C9480000C9480000C94800098
:100010000C9480000C9480000C9480000C94800060
:100020000C9480000C9480000C9480000C94800050
:100030000C9480000C9480000C9480000C94800040
:100040000C94FC020C9480000C94CA020C94A40240
:100050000C9480000C9480000C9480000C94800020
:100060000C9446030C94800000000000250028003A
:100070002B00040404040404040402020202020229
:10008000030303030303010204081020408001025C
:1000900004081020010204081020000000080002DB
:1000A00001000003040700000000000000006104DC
:1000B00011241FBECFEFD8E0DEBFCDBF11E0A0E01E
:1000C000B1E0E8E1FCE002C005900D92A431B10777
:1000D000D9F722E0A4E1B1E001C01D92A033B2073C
:1000E000E1F710E0C8E5D0E004C02197FE010E94CE
:1000F0000406C735D107C9F70E948E040C940A067E
:100100000C940000AF92BF92CF92DF92EF92FF92D9
:100110000F931F93CF93DF936C017B018B01040F2F
:10012000151FEB015E01AE18BF08C017D10759F0CB
:100130006991D601ED91FC910190F081E02DC6010D
:100140000995892B79F7C501DF91CF911F910F9107
:10015000FF90EF90DF90CF90BF90AF900895FC019B
:10016000538D448D252F30E0842F90E0821B930B1C
:10017000541710F0CF96089501970895FC01918DC2
:10018000828D981761F0A28DAE0FBF2FB11D5D96C5
:100190008C91928D9F5F9F73928F90E008958FEF67
:1001A0009FEF0895FC01918D828D981731F0828D1B
:1001B000E80FF11D858D90E008958FEF9FEF089572
:1001C000FC01918D228D892F90E0805C9F4F821BD6
:1001D00091098F739927089583E991E00E94E000C7
:1001E00021E0892B09F420E0822F089580E090E03F
:1001F000892B29F00E94EC0081110C9400000895D5
:10020000FC01A48DA80FB92FB11DA35ABF4F2C918B
:10021000848D90E001968F739927848FA689B78982
:100220002C93A089B1898C91837080648C93938D79
:10023000848D981306C00288F389E02D80818F7D1C
:1002400080830895EF92FF920F931F93CF93DF93D4
:10025000EC0181E0888F9B8D8C8D98131AC0E88902
:10026000F989808185FF15C09FB7F894EE89FF89D1
:100270006083E889F98980818370806480839FBF6F
:1002800081E090E0DF91CF911F910F91FF90EF906F
:100290000895F62E0B8D10E00F5F1F4F0F7311277F
:1002A000E02E8C8D8E110CC00FB607FCFACFE889BA
:1002B000F989808185FFF5CFCE010E940001F1CF41
:1002C000EB8DEC0FFD2FF11DE35AFF4FF0829FB72E
:1002D000F8940B8FEA89FB8980818062CFCFCF931E
:1002E000DF93EC01888D8823B9F0AA89BB89E8895E
:1002F000F9898C9185FD03C0808186FD0DC00FB604
:1003000007FCF7CF8C9185FFF2CF808185FFEDCF81
:10031000CE010E940001E9CFDF91CF91089590E0D6
:10032000FC01E656FF4F2491FC01EA57FF4F349140
:10033000FC01EE58FF4FE491EE23C9F0222339F07F
:10034000233001F1A8F4213019F1223029F1F0E035
:10035000EE0FFF1FE859FF4FA591B4918FB7F894A6
:10036000EC91611126C030953E233C938FBF0895D8
:100370002730A9F02830C9F0243049F78091800057
:100380008F7D03C0809180008F7780938000DFCFC6
:1003900084B58F7784BDDBCF84B58F7DFBCF809113
:1003A000B0008F778093B000D2CF8091B0008F7D66
:1003B000F9CF3E2BDACF20913B01260F3327331F95
:1003C00021323105ECF420915F01FC0190E080E0E6
:1003D000243069F082E00895A0913B012191AC01A5
:1003E000455E5E4FA40FB52FB11D2C930196861765
:1003F00098F380913B01680F60933B0180E0089582
:1004000081E0089508958FEF9FEF08958FEF9FEF9C
:1004100008958091140190E0919581959109089536
:10042000CF93DF93CB01EA01642F0E94DB01CE0161
:10043000DF91CF910895CF93DF931F92CDB7DEB7B1
:10044000698361E0CE0101960E94DB0181E090E0CA
:100450000F90DF91CF91089590E080E008951F9371
:10046000CF93DF9385ED8093BC008091170190912D
:100470001801A0911901B0911A010796A11DB11D93
:1004800023E0B695A795979587952A95D1F7209162
:10049000BC0024FD03C010925F0152C040911701BF
:1004A000509118016091190170911A01452B462B4A
:1004B000472B69F30097A105B10541F02AE22A957F
:1004C000F1F700C00197A109B109E1CF80911601B0
:1004D000C1E0C0931501882399F1D091B800109123
:1004E000BA008091BC008A7B8093BC0060E082E10E
:1004F0000E948F0160E083E10E948F0110925F01F2
:10050000C09361011092600161E082E10E948F015D
:1005100061E083E10E948F018091B9008E7F80931A
:10052000B9008091B9008D7F8093B90088E48093F1
:10053000B80085E48093BC001093BA00D093B80053
:10054000DF91CF911F9108951F920F920FB60F92D6
:1005500011242F933F934F935F936F937F938F93C8
:100560009F93AF93BF93EF93FF9383E991E00E9432
:100570000001FF91EF91BF91AF919F918F917F917A
:100580006F915F914F913F912F910F900FBE0F9000
:100590001F9018951F920F920FB60F9211242F9350
:1005A0008F939F93EF93FF93E091A301F091A401A8
:1005B0008081E091A901F091AA0182FD1BC0908188
:1005C0008091AC018F5F8F732091AD01821741F054
:1005D000E091AC01F0E0ED56FE4F958F8093AC01B9
:1005E000FF91EF919F918F912F910F900FBE0F90E0
:1005F0001F9018958081F4CF1F920F920FB60F9223
:1006000011242F933F938F939F93AF93BF93809128
:100610008A0190918B01A0918C01B0918D01309154
:10062000890123E0230F2D3758F50196A11DB11D37
:100630002093890180938A0190938B01A0938C0170
:10064000B0938D018091850190918601A0918701E1
:10065000B09188010196A11DB11D809385019093F1
:100660008601A0938701B0938801BF91AF919F91BC
:100670008F913F912F910F900FBE0F901F90189563
:1006800026E8230F0296A11DB11DD2CF1F920F9213
:100690000FB60F9211242F933F934F935F936F9355
:1006A0007F938F939F93AF93BF93EF93FF9380912B
:1006B000B900887F803609F44AC0F0F5883209F421
:1006C000A5C018F5803109F499C0B8F4882309F45D
:1006D000F5C0883009F492C0FF91EF91BF91AF91BE
:1006E0009F918F917F916F915F914F913F912F914A
:1006F0000F900FBE0F901F901895883109F486C097
:10070000803251F780935E0114C0803409F49BC09D
:1007100040F48033B9F38833F9F680935E0185ECB9
:10072000AEC0803509F483C0883509F494C088349C
:1007300099F60E942F02D0CF883909F48AC038F583
:10074000883729F050F4883611F0803729F683E095
:1007500080935F0110925D0155C0883809F479C01B
:10076000803919F0803809F0B7CF80915D0180326F
:1007700008F06FC0E0915D0181E08E0F80935D0114
:100780008091BB00F0E0E35CFE4F80833BC0803B88
:1007900039F0D0F4803A09F477C0883A09F09CCF58
:1007A00084E080935F0110923C0110923B01F0E0E5
:1007B000E0E0099580913B0181110FC081E08093B9
:1007C0003B0110921B0109C0803C09F4A8CF883C72
:1007D00009F4A5CF883B09F07FCFE0913C0181E08F
:1007E0008E0F80933C01F0E0E55EFE4F80818093A8
:1007F000BB0090913C0180913B0129C08091840114
:100800008093BB0085EC8093BC0066CF9091830100
:1008100080918201981758F5E091830181E08E0F55
:1008200080938301F0E0EE59FE4F8081E9CFE091A3
:10083000830181E08E0F809383018091BB00F0E003
:10084000EE59FE4F80839091830180918201981729
:10085000C8F285E8D8CFE091830181E08E0F8093C4
:1008600083018091BB00F0E0EE59FE4F80838091C0
:10087000610181115ECF81E08093600184EA809301
:10088000BC0010925F0128CF85EC8093BC001092D1
:100890005F0180915D01803230F4E0915D01F0E014
:1008A000E35CFE4F108260915D0170E08DE391E0AA
:1008B000F0E0E0E0099510925D010ECF10925E012C
:1008C00038CFE3E9F1E01382128288EE93E0A0E0F2
:1008D000B0E084839583A683B78385E091E091831C
:1008E000808385EC90E09587848784EC90E09787FF
:1008F000868780EC90E0918B808B81EC90E0938BED
:10090000828B82EC90E0958B848B86EC90E0978BC9
:10091000868B118E128E138E148E0895CF93DF93D3
:10092000CDB7DEB7A1970FB6F894DEBF0FBECDBF2F
:10093000789484B5826084BD84B5816084BD85B5BA
:10094000826085BD85B5816085BD80916E008160C6
:1009500080936E001092810080918100826080936C
:10096000810080918100816080938100809180006E
:100970008160809380008091B10084608093B10099
:100980008091B00081608093B00080917A00846093
:1009900080937A0080917A00826080937A008091BF
:1009A0007A00816080937A0080917A0080688093D9
:1009B0007A001092C1008AB180668AB984B18E60D3
:1009C00084B987B187B992E0392E2FECE22E3AE054
:1009D000432E512C612C712C40E0C42E40E0D42ECB
:1009E000FF24F39486E0282E99B181E0392F3470EA
:1009F00092FF80E08093920199B181E0292F2870C5
:100A000093FF80E080938E0189B189B183B1332354
:100A100009F4B7C0F092000180910001882309F425
:100A2000CEC088EE93E09093910180939001F09274
:100A30008F01222309F4A8C0F0920001E091A301E4
:100A4000F091A4013082E0919F01F091A001108209
:100A5000E091A101F091A201E0821092AB01E0913E
:100A6000A701F091A8012082E091A501F091A601D3
:100A7000808180618083E091A501F091A601808151
:100A800088608083E091A501F091A6018081806853
:100A90008083E091A501F091A60180818F7D808304
:100AA0008090900190909101092C000CAA08BB083D
:100AB000B7FE6DC06DE283E991E00E94220122271A
:100AC0003327A901281939094A095B0919A28E019E
:100AD0000F5D1F4FCA01B901A30192010E94E205F7
:100AE000605DF80162938F012115310541055105C3
:100AF00089F70115110561F001900020E9F73197A0
:100B0000AF01401B510BB80183E991E00E948200C4
:100B100083E991E00E946F01E091A501F091A601A7
:100B200080818F7E8083E091A501F091A601808174
:100B3000877F8083E091A501F091A60180818F7766
:100B40008083E091A501F091A60180818F7D808353
:100B50008091AD018093AC0180918F01882369F170
:100B60005D9A5E9829982A982B98C114D10409F4AB
:100B70003BCF0E94EC00882309F436CF0E9400008E
:100B800031CF1092000148CF1092000157CFA5013C
:100B9000940119A28E010F5D1F4FCA01B901A30173
:100BA00092010E94E205605DF80162938F012115B8
:100BB00031054105510589F79CCF5D98D2CF109240
:100BC0008F0137CFA1E21A2EAA1BBB1BFD010DC05E
:100BD000AA1FBB1FEE1FFF1FA217B307E407F507ED
:100BE00020F0A21BB30BE40BF50B661F771F881FC9
:100BF000991F1A9469F760957095809590959B015F
:100C0000AC01BD01CF010895EE0FFF1F0590F491D7
:080C1000E02D0994F894FFCFD8
:100C1800010000000022018200AF006F01E000BE69
:040C280000D20000F6
:00000001FF
