:020000040000FA
:100000000C9457000C9474000C9474000C947400BD
:100010000C9474000C9474000C9474000C94740090
:100020000C9474000C9474000C9474000C94740080
:100030000C9474000C9474000C9474000C94740070
:100040000C9496010C9474000C9474000C9474003D
:100050000C9474000C9474000C9474000C94740050
:100060000C94E0010C9474000000000025002800AE
:100070002B00040404040404040402020202020229
:10008000030303030303010204081020408001025C
:1000900004081020010204081020000000080002DB
:1000A000010000030407000000000000000011240C
:1000B0001FBECFEFD8E0DEBFCDBF11E0A0E0B1E0C2
:1000C000E0E5F9E002C005900D92A230B107D9F742
:1000D00021E0A2E0B1E001C01D92AD38B207E1F726
:1000E0000E94FB020C94A6040C94000090E0FC011A
:1000F000E656FF4F2491FC01EA57FF4F3491FC0173
:10010000EE58FF4FE491EE23C9F0222339F023305B
:1001100001F1A8F4213019F1223029F1F0E0EE0FBD
:10012000FF1FE859FF4FA591B4918FB7F894EC9158
:10013000611126C030953E233C938FBF0895273030
:10014000A9F02830C9F0243049F7809180008F7DD4
:1001500003C0809180008F7780938000DFCF84B5CB
:100160008F7784BDDBCF84B58F7DFBCF8091B000CE
:100170008F778093B000D2CF8091B0008F7DF9CF80
:100180003E2BDACF20912901260F3327331F21324E
:100190003105ECF420914D01FC0190E080E0243029
:1001A00069F082E00895A09129012191AC01475F97
:1001B0005E4FA40FB52FB11D2C930196861798F3AF
:1001C00080912901680F6093290180E0089581E002
:1001D000089508958FEF9FEF08958FEF9FEF089593
:1001E0008091020190E09195819591090895CF93B6
:1001F000DF93CB01EA01642F0E94C200CE01DF91A0
:10020000CF910895CF93DF931F92CDB7DEB7698367
:1002100061E0CE0101960E94C20081E090E00F9063
:10022000DF91CF91089590E080E008952091000142
:10023000222331F0FC018081811102C01092000163
:1002400008951F93CF93DF9385ED8093BC00809139
:10025000050190910601A0910701B0910801079650
:10026000A11DB11D23E0B695A795979587952A9571
:10027000D1F72091BC0024FD03C010924D0152C063
:1002800040910501509106016091070170910801AC
:10029000452B462B472B69F30097A105B10541F08B
:1002A0002AE22A95F1F700C00197A109B109E1CF2F
:1002B00080910401C1E0C0930301882399F1D0919A
:1002C000B8001091BA008091BC008A7B8093BC007A
:1002D00060E082E10E94760060E083E10E947600A7
:1002E00010924D01C0934F0110924E0161E082E1E6
:1002F0000E94760061E083E10E9476008091B9005F
:100300008E7F8093B9008091B9008D7F8093B90072
:1003100088E48093B80085E48093BC001093BA0011
:10032000D093B800DF91CF911F9108951F920F9243
:100330000FB60F9211242F933F938F939F93AF93F8
:10034000BF938091780190917901A0917A01B09149
:100350007B013091770123E0230F2D3758F501966B
:10036000A11DB11D209377018093780190937901AD
:10037000A0937A01B0937B018091730190917401F5
:10038000A0917501B09176010196A11DB11D8093D8
:10039000730190937401A0937501B0937601BF919E
:1003A000AF919F918F913F912F910F900FBE0F9022
:1003B0001F90189526E8230F0296A11DB11DD2CFDC
:1003C0001F920F920FB60F9211242F933F934F93CA
:1003D0005F936F937F938F939F93AF93BF93EF93AD
:1003E000FF938091B900887F803609F44AC0F0F508
:1003F000883209F4A5C018F5803109F499C0B8F421
:10040000882309F4F5C0883009F492C0FF91EF9178
:10041000BF91AF919F918F917F916F915F914F911C
:100420003F912F910F900FBE0F901F90189588311C
:1004300009F486C0803251F780934C0114C0803497
:1004400009F49BC040F48033B9F38833F9F6809304
:100450004C0185ECAEC0803509F483C0883509F4C1
:1004600094C0883499F60E942101D0CF883909F4CC
:100470008AC038F5883729F050F4883611F0803773
:1004800029F683E080934D0110924B0155C08838C6
:1004900009F479C0803919F0803809F0B7CF80911C
:1004A0004B01803208F06FC0E0914B0181E08E0F6C
:1004B00080934B018091BB00F0E0E55DFE4F8083AF
:1004C0003BC0803B39F0D0F4803A09F477C0883AD9
:1004D00009F09CCF84E080934D0110922A01109284
:1004E0002901F0E0E0E009958091290181110FC018
:1004F00081E0809329011092090109C0803C09F430
:10050000A8CF883C09F4A5CF883B09F07FCFE091C4
:100510002A0181E08E0F80932A01F0E0E75FFE4F11
:1005200080818093BB0090912A018091290129C08C
:10053000809172018093BB0085EC8093BC0066CFF4
:100540009091710180917001981758F5E0917101B7
:1005500081E08E0F80937101F0E0E05BFE4F8081BF
:10056000E9CFE091710181E08E0F8093710180915C
:10057000BB00F0E0E05BFE4F8083909171018091C1
:1005800070019817C8F285E8D8CFE091710181E039
:100590008E0F809371018091BB00F0E0E05BFE4F15
:1005A000808380914F0181115ECF81E080934E0165
:1005B00084EA8093BC0010924D0128CF85EC809393
:1005C000BC0010924D0180914B01803230F4E091DB
:1005D0004B01F0E0E55DFE4F108260914B0170E051
:1005E0008BE291E0F0E0E0E0099510924B010ECF34
:1005F00010924C0138CF789484B5826084BD84B564
:10060000816084BD85B5826085BD85B5816085BD0D
:1006100080916E00816080936E00109281008091C5
:10062000810082608093810080918100816080934D
:100630008100809180008160809380008091B10072
:1006400084608093B1008091B00081608093B0009D
:1006500080917A00846080937A0080917A00826031
:1006600080937A0080917A00816080937A008091F3
:100670007A00806880937A001092C1008AB1806607
:100680008AB984B18E6084B987B187B98AE0882E2F
:10069000912CC5E0D0E004E010E093E0A92EB12C4D
:1006A0003324339489B182FB882780F980938C01AD
:1006B00089B183FB882780F98093870189B182956E
:1006C00081708093810189B183B1309200018CE8FF
:1006D00091E00E94160180910001882351F08FE083
:1006E00090E090938B0180938A019092890180928F
:1006F00088013092000187E891E00E941601809104
:100700000001882311F16091880170918901072E01
:10071000000C880B990B0E9442046B017C016091D4
:100720008A0170918B01072E000C880B990B0E9497
:1007300042042B013C01AC019B01C701B6010E94A0
:100740003B0487FF73C0309286013092000186E837
:1007500091E00E94160180910001882321F0D0933E
:100760008301C09382013092000185E891E00E94EC
:10077000160180910001882321F0109383010093DA
:1007800082013092000184E891E00E94160180917C
:100790000001882321F0B0928301A092820130925F
:1007A000000181E891E00E941601209182013091C0
:1007B00083012115310519F180910001882309F485
:1007C0004CC080917E0181110FC080917F0190917A
:1007D000800101969093800180937F0183EC90E0EB
:1007E0000197F1F730927E0180917F019091800115
:1007F00082179307ACF13092000130927D01809115
:100800000001882391F130927C0180917C01882342
:1008100079F15D9A5E9829982A982B9880E090E06B
:10082000892B09F43FCF0E9400003ACFA301920127
:10083000C701B6010E943B04811103C030928501BB
:1008400084CFA3019201C701B6010E94A10418162A
:100850000CF07BCF3092840178CF10927E01C4CF10
:100860001092000110927D01CACF10927C01CDCF71
:100870005D98D0CF08950E947D0408F481E008952A
:10088000E89409C097FB3EF490958095709561952A
:100890007F4F8F4F9F4F9923A9F0F92F96E9BB27E0
:1008A0009395F695879577956795B795F111F8CF5C
:1008B000FAF4BB0F11F460FF1BC06F5F7F4F8F4FC7
:1008C0009F4F16C0882311F096E911C0772321F0BD
:1008D0009EE8872F762F05C0662371F096E8862F55
:1008E00070E060E02AF09A95660F771F881FDAF7AC
:1008F000880F9695879597F90895990F0008550FD9
:10090000AA0BE0E8FEEF16161706E807F907C0F095
:1009100012161306E407F50798F0621B730B840B9D
:10092000950B39F40A2661F0232B242B252B21F477
:1009300008950A2609F4A140A6958FEF811D811D17
:1009400008950E947D0408F48FEF0895F894FFCF76
:020950000100A4
:107E0000112484B714BE81FFF0D085E080938100F7
:107E100082E08093C00088E18093C10086E0809377
:107E2000C20080E18093C4008EE0C9D0259A86E02C
:107E300020E33CEF91E0309385002093840096BBD3
:107E4000B09BFECF1D9AA8958150A9F7CC24DD24C4
:107E500088248394B5E0AB2EA1E19A2EF3E0BF2EE7
:107E6000A2D0813461F49FD0082FAFD0023811F036
:107E7000013811F484E001C083E08DD089C08234E0
:107E800011F484E103C0853419F485E0A6D080C0E4
:107E9000853579F488D0E82EFF2485D0082F10E0AE
:107EA000102F00270E291F29000F111F8ED06801E7
:107EB0006FC0863521F484E090D080E0DECF843638
:107EC00009F040C070D06FD0082F6DD080E0C81688
:107ED00080E7D80618F4F601B7BEE895C0E0D1E017
:107EE00062D089930C17E1F7F0E0CF16F0E7DF06D8
:107EF00018F0F601B7BEE89568D007B600FCFDCFD4
:107F0000A601A0E0B1E02C9130E011968C91119780
:107F100090E0982F8827822B932B1296FA010C0160
:107F200087BEE89511244E5F5F4FF1E0A038BF0790
:107F300051F7F601A7BEE89507B600FCFDCF97BE46
:107F4000E89526C08437B1F42ED02DD0F82E2BD052
:107F50003CD0F601EF2C8F010F5F1F4F84911BD097
:107F6000EA94F801C1F70894C11CD11CFA94CF0C13
:107F7000D11C0EC0853739F428D08EE10CD085E9AC
:107F80000AD08FE07ACF813511F488E018D01DD067
:107F900080E101D065CF982F8091C00085FFFCCF94
:107FA0009093C60008958091C00087FFFCCF809118
:107FB000C00084FD01C0A8958091C6000895E0E648
:107FC000F0E098E1908380830895EDDF803219F02E
:107FD00088E0F5DFFFCF84E1DECF1F93182FE3DFCA
:107FE0001150E9F7F2DF1F91089580E0E8DFEE27F6
:047FF000FF270994CA
:027FFE00040479
:00000001FF
