:100000000C9457000C9474000C9474000C947400BD
:100010000C9474000C9474000C9474000C94740090
:100020000C9474000C9474000C9474000C94740080
:100030000C9474000C9474000C9474000C94740070
:100040000C9496010C9474000C9474000C9474003D
:100050000C9474000C9474000C9474000C94740050
:100060000C94E0010C9474000000000025002800AE
:100070002B00040404040404040402020202020229
:10008000030303030303010204081020408001025C
:1000900004081020010204081020000000080002DB
:1000A000010000030407000000000000000011240C
:1000B0001FBECFEFD8E0DEBFCDBF11E0A0E0B1E0C2
:1000C000ECEDF8E002C005900D92A230B107D9F72F
:1000D00021E0A2E0B1E001C01D92A838B207E1F72B
:1000E0000E94FB020C946C040C94000090E0FC0154
:1000F000E656FF4F2491FC01EA57FF4F3491FC0173
:10010000EE58FF4FE491EE23C9F0222339F023305B
:1001100001F1A8F4213019F1223029F1F0E0EE0FBD
:10012000FF1FE859FF4FA591B4918FB7F894EC9158
:10013000611126C030953E233C938FBF0895273030
:10014000A9F02830C9F0243049F7809180008F7DD4
:1001500003C0809180008F7780938000DFCF84B5CB
:100160008F7784BDDBCF84B58F7DFBCF8091B000CE
:100170008F778093B000D2CF8091B0008F7DF9CF80
:100180003E2BDACF20912901260F3327331F21324E
:100190003105ECF420914D01FC0190E080E0243029
:1001A00069F082E00895A09129012191AC01475F97
:1001B0005E4FA40FB52FB11D2C930196861798F3AF
:1001C00080912901680F6093290180E0089581E002
:1001D000089508958FEF9FEF08958FEF9FEF089593
:1001E0008091020190E09195819591090895CF93B6
:1001F000DF93CB01EA01642F0E94C200CE01DF91A0
:10020000CF910895CF93DF931F92CDB7DEB7698367
:1002100061E0CE0101960E94C20081E090E00F9063
:10022000DF91CF91089590E080E008952091000142
:10023000222331F0FC018081811102C01092000163
:1002400008951F93CF93DF9385ED8093BC00809139
:10025000050190910601A0910701B0910801079650
:10026000A11DB11D23E0B695A795979587952A9571
:10027000D1F72091BC0024FD03C010924D0152C063
:1002800040910501509106016091070170910801AC
:10029000452B462B472B69F30097A105B10541F08B
:1002A0002AE22A95F1F700C00197A109B109E1CF2F
:1002B00080910401C1E0C0930301882399F1D0919A
:1002C000B8001091BA008091BC008A7B8093BC007A
:1002D00060E082E10E94760060E083E10E947600A7
:1002E00010924D01C0934F0110924E0161E082E1E6
:1002F0000E94760061E083E10E9476008091B9005F
:100300008E7F8093B9008091B9008D7F8093B90072
:1003100088E48093B80085E48093BC001093BA0011
:10032000D093B800DF91CF911F9108951F920F9243
:100330000FB60F9211242F933F938F939F93AF93F8
:10034000BF938091780190917901A0917A01B09149
:100350007B013091770123E0230F2D3758F501966B
:10036000A11DB11D209377018093780190937901AD
:10037000A0937A01B0937B018091730190917401F5
:10038000A0917501B09176010196A11DB11D8093D8
:10039000730190937401A0937501B0937601BF919E
:1003A000AF919F918F913F912F910F900FBE0F9022
:1003B0001F90189526E8230F0296A11DB11DD2CFDC
:1003C0001F920F920FB60F9211242F933F934F93CA
:1003D0005F936F937F938F939F93AF93BF93EF93AD
:1003E000FF938091B900887F803609F44AC0F0F508
:1003F000883209F4A5C018F5803109F499C0B8F421
:10040000882309F4F5C0883009F492C0FF91EF9178
:10041000BF91AF919F918F917F916F915F914F911C
:100420003F912F910F900FBE0F901F90189588311C
:1004300009F486C0803251F780934C0114C0803497
:1004400009F49BC040F48033B9F38833F9F6809304
:100450004C0185ECAEC0803509F483C0883509F4C1
:1004600094C0883499F60E942101D0CF883909F4CC
:100470008AC038F5883729F050F4883611F0803773
:1004800029F683E080934D0110924B0155C08838C6
:1004900009F479C0803919F0803809F0B7CF80911C
:1004A0004B01803208F06FC0E0914B0181E08E0F6C
:1004B00080934B018091BB00F0E0E55DFE4F8083AF
:1004C0003BC0803B39F0D0F4803A09F477C0883AD9
:1004D00009F09CCF84E080934D0110922A01109284
:1004E0002901F0E0E0E009958091290181110FC018
:1004F00081E0809329011092090109C0803C09F430
:10050000A8CF883C09F4A5CF883B09F07FCFE091C4
:100510002A0181E08E0F80932A01F0E0E75FFE4F11
:1005200080818093BB0090912A018091290129C08C
:10053000809172018093BB0085EC8093BC0066CFF4
:100540009091710180917001981758F5E0917101B7
:1005500081E08E0F80937101F0E0E05BFE4F8081BF
:10056000E9CFE091710181E08E0F8093710180915C
:10057000BB00F0E0E05BFE4F8083909171018091C1
:1005800070019817C8F285E8D8CFE091710181E039
:100590008E0F809371018091BB00F0E0E05BFE4F15
:1005A000808380914F0181115ECF81E080934E0165
:1005B00084EA8093BC0010924D0128CF85EC809393
:1005C000BC0010924D0180914B01803230F4E091DB
:1005D0004B01F0E0E55DFE4F108260914B0170E051
:1005E0008BE291E0F0E0E0E0099510924B010ECF34
:1005F00010924C0138CF789484B5826084BD84B564
:10060000816084BD85B5826085BD85B5816085BD0D
:1006100080916E00816080936E00109281008091C5
:10062000810082608093810080918100816080934D
:100630008100809180008160809380008091B10072
:1006400084608093B1008091B00081608093B0009D
:1006500080917A00846080937A0080917A00826031
:1006600080937A0080917A00816080937A008091F3
:100670007A00806880937A001092C1008AB1806607
:100680008AB984B18E6084B987B187B9C1E000E0CE
:1006900010E08FE0E82EF12C9AE0C92ED12C89B120
:1006A00082FB882780F98093870189B183FB8827A3
:1006B00080F98093820189B189B183B1C09300012F
:1006C00087E891E00E94160180910001882341F0A3
:1006D000F0928601E0928501D0928401C09283015C
:1006E000C093000182E891E00E9416018091000110
:1006F000882311F16091830170918401072E000C11
:10070000880B990B0E9408044B015C0160918501E4
:1007100070918601072E000C880B990B0E9408042B
:100720002B013C01AC019B01C501B4010E940104F5
:1007300087FF40C0C0938101C093000181E891E030
:100740000E94160180910001882309F44AC0C093D9
:100750007E01C093000180E891E00E941601809123
:100760000001882309F440C0C0937D01C0930001BB
:100770008FE791E00E941601809100018823B9F172
:10078000C0937C0180917E018823A1F15D9A8091C4
:100790007D01882389F15E9A80917C01882371F123
:1007A000299A2A982B980115110509F478CF0E94EF
:1007B000000075CFA3019201C501B4010E9401049C
:1007C000811103C0C0938001B7CFA3019201C5017D
:1007D000B4010E94670418160CF0AECFC0937F01DD
:1007E000ABCF10927E01B5CF10927D01BFCF10929A
:1007F0007C01C8CF5D98CBCF5E98CECF2998D1CF62
:1008000008950E94430408F481E00895E89409C023
:1008100097FB3EF490958095709561957F4F8F4F33
:100820009F4F9923A9F0F92F96E9BB279395F69549
:10083000879577956795B795F111F8CFFAF4BB0FC7
:1008400011F460FF1BC06F5F7F4F8F4F9F4F16C02B
:10085000882311F096E911C0772321F09EE8872FB5
:10086000762F05C0662371F096E8862F70E060E071
:100870002AF09A95660F771F881FDAF7880F9695EA
:10088000879597F90895990F0008550FAA0BE0E88E
:10089000FEEF16161706E807F907C0F01216130642
:1008A000E407F50798F0621B730B840B950B39F482
:1008B0000A2661F0232B242B252B21F408950A26E8
:1008C00009F4A140A6958FEF811D811D08950E9416
:0C08D000430408F48FEF0895F894FFCF64
:0208DC00010019
:00000001FF
